06:17:58.759388 10:51:07:88:6a:80 > 33:33:00:01:00:03, ethertype IPv6 (0x86dd), length 87: (flowlabel 0x31629, hlim 1, next-header UDP (17) payload length: 33) fe80::c0d7:3fa8:fd8a:56db.64773 > ff02::1:3.5355: [udp sum ok] UDP, length 25
	0x0000:  6003 1629 0021 1101 fe80 0000 0000 0000  `..).!..........
	0x0010:  c0d7 3fa8 fd8a 56db ff02 0000 0000 0000  ..?...V.........
	0x0020:  0000 0000 0001 0003 fd05 14eb 0021 5ad6  .............!Z.
	0x0030:  f9e8 0000 0001 0000 0000 0000 0753 7572  .............Sur
	0x0040:  6661 6365 0000 ff00 01                   face.....
06:17:59.168031 10:51:07:88:6a:80 > 33:33:00:01:00:03, ethertype IPv6 (0x86dd), length 87: (flowlabel 0x31629, hlim 1, next-header UDP (17) payload length: 33) fe80::c0d7:3fa8:fd8a:56db.64773 > ff02::1:3.5355: [udp sum ok] UDP, length 25
	0x0000:  6003 1629 0021 1101 fe80 0000 0000 0000  `..).!..........
	0x0010:  c0d7 3fa8 fd8a 56db ff02 0000 0000 0000  ..?...V.........
	0x0020:  0000 0000 0001 0003 fd05 14eb 0021 5ad6  .............!Z.
	0x0030:  f9e8 0000 0001 0000 0000 0000 0753 7572  .............Sur
	0x0040:  6661 6365 0000 ff00 01                   face.....
06:17:59.580028 10:51:07:88:6a:80 > 33:33:00:01:00:03, ethertype IPv6 (0x86dd), length 87: (flowlabel 0x2480b, hlim 1, next-header UDP (17) payload length: 33) fe80::c0d7:3fa8:fd8a:56db.52913 > ff02::1:3.5355: [udp sum ok] UDP, length 25
	0x0000:  6002 480b 0021 1101 fe80 0000 0000 0000  `.H..!..........
	0x0010:  c0d7 3fa8 fd8a 56db ff02 0000 0000 0000  ..?...V.........
	0x0020:  0000 0000 0001 0003 ceb1 14eb 0021 7b8c  .............!{.
	0x0030:  0787 0000 0001 0000 0000 0000 0753 7572  .............Sur
	0x0040:  6661 6365 0000 ff00 01                   face.....
06:17:59.686574 c0:b6:f9:e5:84:ea > 33:33:00:01:00:03, ethertype IPv6 (0x86dd), length 95: (flowlabel 0x171b9, hlim 1, next-header UDP (17) payload length: 41) fe80::cfff:76ca:e9d5:c54.58997 > ff02::1:3.5355: [udp sum ok] UDP, length 33
	0x0000:  6001 71b9 0029 1101 fe80 0000 0000 0000  `.q..)..........
	0x0010:  cfff 76ca e9d5 0c54 ff02 0000 0000 0000  ..v....T........
	0x0020:  0000 0000 0001 0003 e675 14eb 0029 8ace  .........u...)..
	0x0030:  7df3 0000 0001 0000 0000 0000 0f42 5257  }............BRW
	0x0040:  4543 3543 3638 4535 3737 3038 0000 0100  EC5C68E57708....
	0x0050:  01                                       .
06:17:59.686636 c0:b6:f9:e5:84:ea > 01:00:5e:00:00:fc, ethertype IPv4 (0x0800), length 75: (tos 0x0, ttl 1, id 21832, offset 0, flags [none], proto UDP (17), length 61)
    100.64.135.199.58997 > 224.0.0.252.5355: [udp sum ok] UDP, length 33
	0x0000:  4500 003d 5548 0000 0111 9764 6440 87c7  E..=UH.....dd@..
	0x0010:  e000 00fc e675 14eb 0029 f845 7df3 0000  .....u...).E}...
	0x0020:  0001 0000 0000 0000 0f42 5257 4543 3543  .........BRWEC5C
	0x0030:  3638 4535 3737 3038 0000 0100 01         68E57708.....
06:17:59.985055 10:51:07:88:6a:80 > 33:33:00:01:00:03, ethertype IPv6 (0x86dd), length 87: (flowlabel 0x4a729, hlim 1, next-header UDP (17) payload length: 33) fe80::c0d7:3fa8:fd8a:56db.52913 > ff02::1:3.5355: [udp sum ok] UDP, length 25
	0x0000:  6004 a729 0021 1101 fe80 0000 0000 0000  `..).!..........
	0x0010:  c0d7 3fa8 fd8a 56db ff02 0000 0000 0000  ..?...V.........
	0x0020:  0000 0000 0001 0003 ceb1 14eb 0021 7b8c  .............!{.
	0x0030:  0787 0000 0001 0000 0000 0000 0753 7572  .............Sur
	0x0040:  6661 6365 0000 ff00 01                   face.....
06:18:00.086264 c0:b6:f9:e5:84:ea > 01:00:5e:00:00:fc, ethertype IPv4 (0x0800), length 75: (tos 0x0, ttl 1, id 21833, offset 0, flags [none], proto UDP (17), length 61)
    100.64.135.199.58997 > 224.0.0.252.5355: [udp sum ok] UDP, length 33
	0x0000:  4500 003d 5549 0000 0111 9763 6440 87c7  E..=UI.....cd@..
	0x0010:  e000 00fc e675 14eb 0029 f845 7df3 0000  .....u...).E}...
	0x0020:  0001 0000 0000 0000 0f42 5257 4543 3543  .........BRWEC5C
	0x0030:  3638 4535 3737 3038 0000 0100 01         68E57708.....
06:18:00.086264 c0:b6:f9:e5:84:ea > 33:33:00:01:00:03, ethertype IPv6 (0x86dd), length 95: (flowlabel 0xce6c3, hlim 1, next-header UDP (17) payload length: 41) fe80::cfff:76ca:e9d5:c54.58997 > ff02::1:3.5355: [udp sum ok] UDP, length 33
	0x0000:  600c e6c3 0029 1101 fe80 0000 0000 0000  `....)..........
	0x0010:  cfff 76ca e9d5 0c54 ff02 0000 0000 0000  ..v....T........
	0x0020:  0000 0000 0001 0003 e675 14eb 0029 8ace  .........u...)..
	0x0030:  7df3 0000 0001 0000 0000 0000 0f42 5257  }............BRW
	0x0040:  4543 3543 3638 4535 3737 3038 0000 0100  EC5C68E57708....
	0x0050:  01                                       .
06:18:00.502601 10:51:07:88:6a:80 > 33:33:00:01:00:03, ethertype IPv6 (0x86dd), length 87: (flowlabel 0x4d96d, hlim 1, next-header UDP (17) payload length: 33) fe80::c0d7:3fa8:fd8a:56db.50268 > ff02::1:3.5355: [udp sum ok] UDP, length 25
	0x0000:  6004 d96d 0021 1101 fe80 0000 0000 0000  `..m.!..........
	0x0010:  c0d7 3fa8 fd8a 56db ff02 0000 0000 0000  ..?...V.........
	0x0020:  0000 0000 0001 0003 c45c 14eb 0021 0fba  .........\...!..
	0x0030:  7dae 0000 0001 0000 0000 0000 0753 7572  }............Sur
	0x0040:  6661 6365 0000 ff00 01                   face.....
06:18:00.502746 10:51:07:88:6a:80 > 01:00:5e:00:00:fc, ethertype IPv4 (0x0800), length 67: (tos 0x0, ttl 1, id 53440, offset 0, flags [none], proto UDP (17), length 53)
    100.64.130.127.50268 > 224.0.0.252.5355: [udp sum ok] UDP, length 25
	0x0000:  4500 0035 d0c0 0000 0111 213c 6440 827f  E..5......!<d@..
	0x0010:  e000 00fc c45c 14eb 0021 9a6b 7dae 0000  .....\...!.k}...
	0x0020:  0001 0000 0000 0000 0753 7572 6661 6365  .........Surface
	0x0030:  0000 ff00 01                             .....
06:18:01.627022 bc:6e:e2:b7:66:be > 01:00:5e:00:00:fc, ethertype IPv4 (0x0800), length 70: (tos 0x0, ttl 1, id 54497, offset 0, flags [none], proto UDP (17), length 56)
    100.64.132.86.63276 > 224.0.0.252.5355: [udp sum ok] UDP, length 28
	0x0000:  4500 0038 d4e1 0000 0111 1b41 6440 8456  E..8.......Ad@.V
	0x0010:  e000 00fc f72c 14eb 0024 574d 6153 0000  .....,...$WMaS..
	0x0020:  0001 0000 0000 0000 0a41 522d 5558 3538  .........AR-UX58
	0x0030:  325a 5700 00ff 0001                      2ZW.....
06:18:02.546324 10:51:07:88:6a:80 > 33:33:00:01:00:03, ethertype IPv6 (0x86dd), length 87: (flowlabel 0x27999, hlim 1, next-header UDP (17) payload length: 33) fe80::c0d7:3fa8:fd8a:56db.61928 > ff02::1:3.5355: [udp sum ok] UDP, length 25
	0x0000:  6002 7999 0021 1101 fe80 0000 0000 0000  `.y..!..........
	0x0010:  c0d7 3fa8 fd8a 56db ff02 0000 0000 0000  ..?...V.........
	0x0020:  0000 0000 0001 0003 f1e8 14eb 0021 49e2  .............!I.
	0x0030:  15fa 0000 0001 0000 0000 0000 0753 7572  .............Sur
	0x0040:  6661 6365 0000 ff00 01                   face.....
06:18:02.546324 c0:b6:f9:e5:84:ea > 33:33:00:01:00:03, ethertype IPv6 (0x86dd), length 95: (flowlabel 0xf0092, hlim 1, next-header UDP (17) payload length: 41) fe80::cfff:76ca:e9d5:c54.57969 > ff02::1:3.5355: [udp sum ok] UDP, length 33
	0x0000:  600f 0092 0029 1101 fe80 0000 0000 0000  `....)..........
	0x0010:  cfff 76ca e9d5 0c54 ff02 0000 0000 0000  ..v....T........
	0x0020:  0000 0000 0001 0003 e271 14eb 0029 37ff  .........q...)7.
	0x0030:  d4c6 0000 0001 0000 0000 0000 0f42 5257  .............BRW
	0x0040:  4543 3543 3638 4535 3737 3038 0000 0100  EC5C68E57708....
	0x0050:  01                                       .
06:18:02.546460 10:51:07:88:6a:80 > 01:00:5e:00:00:fc, ethertype IPv4 (0x0800), length 67: (tos 0x0, ttl 1, id 53441, offset 0, flags [none], proto UDP (17), length 53)
    100.64.130.127.61928 > 224.0.0.252.5355: [udp sum ok] UDP, length 25
	0x0000:  4500 0035 d0c1 0000 0111 213b 6440 827f  E..5......!;d@..
	0x0010:  e000 00fc f1e8 14eb 0021 d493 15fa 0000  .........!......
	0x0020:  0001 0000 0000 0000 0753 7572 6661 6365  .........Surface
	0x0030:  0000 ff00 01                             .....
06:18:02.546461 c0:b6:f9:e5:84:ea > 01:00:5e:00:00:fc, ethertype IPv4 (0x0800), length 75: (tos 0x0, ttl 1, id 21834, offset 0, flags [none], proto UDP (17), length 61)
    100.64.135.199.57969 > 224.0.0.252.5355: [udp sum ok] UDP, length 33
	0x0000:  4500 003d 554a 0000 0111 9762 6440 87c7  E..=UJ.....bd@..
	0x0010:  e000 00fc e271 14eb 0029 a576 d4c6 0000  .....q...).v....
	0x0020:  0001 0000 0000 0000 0f42 5257 4543 3543  .........BRWEC5C
	0x0030:  3638 4535 3737 3038 0000 0100 01         68E57708.....
06:18:02.954867 10:51:07:88:6a:80 > 01:00:5e:00:00:fc, ethertype IPv4 (0x0800), length 67: (tos 0x0, ttl 1, id 53442, offset 0, flags [none], proto UDP (17), length 53)
    100.64.130.127.61928 > 224.0.0.252.5355: [udp sum ok] UDP, length 25
	0x0000:  4500 0035 d0c2 0000 0111 213a 6440 827f  E..5......!:d@..
	0x0010:  e000 00fc f1e8 14eb 0021 d493 15fa 0000  .........!......
	0x0020:  0001 0000 0000 0000 0753 7572 6661 6365  .........Surface
	0x0030:  0000 ff00 01                             .....
06:18:02.954867 c0:b6:f9:e5:84:ea > 01:00:5e:00:00:fc, ethertype IPv4 (0x0800), length 75: (tos 0x0, ttl 1, id 21835, offset 0, flags [none], proto UDP (17), length 61)
    100.64.135.199.57969 > 224.0.0.252.5355: [udp sum ok] UDP, length 33
	0x0000:  4500 003d 554b 0000 0111 9761 6440 87c7  E..=UK.....ad@..
	0x0010:  e000 00fc e271 14eb 0029 a576 d4c6 0000  .....q...).v....
	0x0020:  0001 0000 0000 0000 0f42 5257 4543 3543  .........BRWEC5C
	0x0030:  3638 4535 3737 3038 0000 0100 01         68E57708.....
06:18:02.954867 10:51:07:88:6a:80 > 33:33:00:01:00:03, ethertype IPv6 (0x86dd), length 87: (flowlabel 0x27999, hlim 1, next-header UDP (17) payload length: 33) fe80::c0d7:3fa8:fd8a:56db.61928 > ff02::1:3.5355: [udp sum ok] UDP, length 25
	0x0000:  6002 7999 0021 1101 fe80 0000 0000 0000  `.y..!..........
	0x0010:  c0d7 3fa8 fd8a 56db ff02 0000 0000 0000  ..?...V.........
	0x0020:  0000 0000 0001 0003 f1e8 14eb 0021 49e2  .............!I.
	0x0030:  15fa 0000 0001 0000 0000 0000 0753 7572  .............Sur
	0x0040:  6661 6365 0000 ff00 01                   face.....
06:18:02.954935 c0:b6:f9:e5:84:ea > 33:33:00:01:00:03, ethertype IPv6 (0x86dd), length 95: (flowlabel 0xf0092, hlim 1, next-header UDP (17) payload length: 41) fe80::cfff:76ca:e9d5:c54.57969 > ff02::1:3.5355: [udp sum ok] UDP, length 33
	0x0000:  600f 0092 0029 1101 fe80 0000 0000 0000  `....)..........
	0x0010:  cfff 76ca e9d5 0c54 ff02 0000 0000 0000  ..v....T........
	0x0020:  0000 0000 0001 0003 e271 14eb 0029 37ff  .........q...)7.
	0x0030:  d4c6 0000 0001 0000 0000 0000 0f42 5257  .............BRW
	0x0040:  4543 3543 3638 4535 3737 3038 0000 0100  EC5C68E57708....
	0x0050:  01                                       .
06:18:05.327146 c0:b6:f9:e5:84:ea > 01:00:5e:00:00:fc, ethertype IPv4 (0x0800), length 75: (tos 0x0, ttl 1, id 21836, offset 0, flags [none], proto UDP (17), length 61)
    100.64.135.199.61418 > 224.0.0.252.5355: [udp sum ok] UDP, length 33
	0x0000:  4500 003d 554c 0000 0111 9760 6440 87c7  E..=UL.....`d@..
	0x0010:  e000 00fc efea 14eb 0029 ab87 c13c 0000  .........)...<..
	0x0020:  0001 0000 0000 0000 0f42 5257 4543 3543  .........BRWEC5C
	0x0030:  3638 4535 3737 3038 0000 0100 01         68E57708.....
06:18:05.327146 c0:b6:f9:e5:84:ea > 33:33:00:01:00:03, ethertype IPv6 (0x86dd), length 95: (flowlabel 0x46943, hlim 1, next-header UDP (17) payload length: 41) fe80::cfff:76ca:e9d5:c54.61418 > ff02::1:3.5355: [udp sum ok] UDP, length 33
	0x0000:  6004 6943 0029 1101 fe80 0000 0000 0000  `.iC.)..........
	0x0010:  cfff 76ca e9d5 0c54 ff02 0000 0000 0000  ..v....T........
	0x0020:  0000 0000 0001 0003 efea 14eb 0029 3e10  .............)>.
	0x0030:  c13c 0000 0001 0000 0000 0000 0f42 5257  .<...........BRW
	0x0040:  4543 3543 3638 4535 3737 3038 0000 0100  EC5C68E57708....
	0x0050:  01                                       .
06:18:05.817101 c0:b6:f9:e5:84:ea > 33:33:00:01:00:03, ethertype IPv6 (0x86dd), length 95: (flowlabel 0x46943, hlim 1, next-header UDP (17) payload length: 41) fe80::cfff:76ca:e9d5:c54.61418 > ff02::1:3.5355: [udp sum ok] UDP, length 33
	0x0000:  6004 6943 0029 1101 fe80 0000 0000 0000  `.iC.)..........
	0x0010:  cfff 76ca e9d5 0c54 ff02 0000 0000 0000  ..v....T........
	0x0020:  0000 0000 0001 0003 efea 14eb 0029 3e10  .............)>.
	0x0030:  c13c 0000 0001 0000 0000 0000 0f42 5257  .<...........BRW
	0x0040:  4543 3543 3638 4535 3737 3038 0000 0100  EC5C68E57708....
	0x0050:  01                                       .
06:18:05.821063 c0:b6:f9:e5:84:ea > 01:00:5e:00:00:fc, ethertype IPv4 (0x0800), length 75: (tos 0x0, ttl 1, id 21837, offset 0, flags [none], proto UDP (17), length 61)
    100.64.135.199.61418 > 224.0.0.252.5355: [udp sum ok] UDP, length 33
	0x0000:  4500 003d 554d 0000 0111 975f 6440 87c7  E..=UM....._d@..
	0x0010:  e000 00fc efea 14eb 0029 ab87 c13c 0000  .........)...<..
	0x0020:  0001 0000 0000 0000 0f42 5257 4543 3543  .........BRWEC5C
	0x0030:  3638 4535 3737 3038 0000 0100 01         68E57708.....
06:18:08.182106 c0:b6:f9:e5:84:ea > 01:00:5e:00:00:fc, ethertype IPv4 (0x0800), length 75: (tos 0x0, ttl 1, id 21838, offset 0, flags [none], proto UDP (17), length 61)
    100.64.135.199.52553 > 224.0.0.252.5355: [udp sum ok] UDP, length 33
	0x0000:  4500 003d 554e 0000 0111 975e 6440 87c7  E..=UN.....^d@..
	0x0010:  e000 00fc cd49 14eb 0029 83a3 0bc2 0000  .....I...)......
	0x0020:  0001 0000 0000 0000 0f42 5257 4543 3543  .........BRWEC5C
	0x0030:  3638 4535 3737 3038 0000 0100 01         68E57708.....
06:18:08.182261 c0:b6:f9:e5:84:ea > 33:33:00:01:00:03, ethertype IPv6 (0x86dd), length 95: (flowlabel 0xf76f4, hlim 1, next-header UDP (17) payload length: 41) fe80::cfff:76ca:e9d5:c54.52553 > ff02::1:3.5355: [udp sum ok] UDP, length 33
	0x0000:  600f 76f4 0029 1101 fe80 0000 0000 0000  `.v..)..........
	0x0010:  cfff 76ca e9d5 0c54 ff02 0000 0000 0000  ..v....T........
	0x0020:  0000 0000 0001 0003 cd49 14eb 0029 162c  .........I...).,
	0x0030:  0bc2 0000 0001 0000 0000 0000 0f42 5257  .............BRW
	0x0040:  4543 3543 3638 4535 3737 3038 0000 0100  EC5C68E57708....
	0x0050:  01                                       .
06:18:08.384130 f8:89:d2:b1:55:05 > 33:33:00:01:00:03, ethertype IPv6 (0x86dd), length 106: (flowlabel 0x61e96, hlim 1, next-header UDP (17) payload length: 52) fe80::e617:cd12:9b9b:6c56.55785 > ff02::1:3.5355: [udp sum ok] UDP, length 44
	0x0000:  6006 1e96 0034 1101 fe80 0000 0000 0000  `....4..........
	0x0010:  e617 cd12 9b9b 6c56 ff02 0000 0000 0000  ......lV........
	0x0020:  0000 0000 0001 0003 d9e9 14eb 0034 0246  .............4.F
	0x0030:  407b 0000 0001 0000 0000 0000 0231 3103  @{...........11.
	0x0040:  3133 3402 3634 0331 3030 0769 6e2d 6164  134.64.100.in-ad
	0x0050:  6472 0461 7270 6100 000c 0001            dr.arpa.....
06:18:08.384131 f8:89:d2:b1:55:05 > 01:00:5e:00:00:fc, ethertype IPv4 (0x0800), length 86: (tos 0x0, ttl 1, id 21143, offset 0, flags [none], proto UDP (17), length 72)
    100.64.129.38.55785 > 224.0.0.252.5355: [udp sum ok] UDP, length 44
	0x0000:  4500 0048 5297 0000 0111 a0ab 6440 8126  E..HR.......d@.&
	0x0010:  e000 00fc d9e9 14eb 0034 f486 407b 0000  .........4..@{..
	0x0020:  0001 0000 0000 0000 0231 3103 3133 3402  .........11.134.
	0x0030:  3634 0331 3030 0769 6e2d 6164 6472 0461  64.100.in-addr.a
	0x0040:  7270 6100 000c 0001                      rpa.....
06:18:08.589718 c0:b6:f9:e5:84:ea > 33:33:00:01:00:03, ethertype IPv6 (0x86dd), length 95: (flowlabel 0xf76f4, hlim 1, next-header UDP (17) payload length: 41) fe80::cfff:76ca:e9d5:c54.52553 > ff02::1:3.5355: [udp sum ok] UDP, length 33
	0x0000:  600f 76f4 0029 1101 fe80 0000 0000 0000  `.v..)..........
	0x0010:  cfff 76ca e9d5 0c54 ff02 0000 0000 0000  ..v....T........
	0x0020:  0000 0000 0001 0003 cd49 14eb 0029 162c  .........I...).,
	0x0030:  0bc2 0000 0001 0000 0000 0000 0f42 5257  .............BRW
	0x0040:  4543 3543 3638 4535 3737 3038 0000 0100  EC5C68E57708....
	0x0050:  01                                       .
06:18:08.589719 c0:b6:f9:e5:84:ea > 01:00:5e:00:00:fc, ethertype IPv4 (0x0800), length 75: (tos 0x0, ttl 1, id 21839, offset 0, flags [none], proto UDP (17), length 61)
    100.64.135.199.52553 > 224.0.0.252.5355: [udp sum ok] UDP, length 33
	0x0000:  4500 003d 554f 0000 0111 975d 6440 87c7  E..=UO.....]d@..
	0x0010:  e000 00fc cd49 14eb 0029 83a3 0bc2 0000  .....I...)......
	0x0020:  0001 0000 0000 0000 0f42 5257 4543 3543  .........BRWEC5C
	0x0030:  3638 4535 3737 3038 0000 0100 01         68E57708.....
06:18:08.796621 f8:89:d2:b1:55:05 > 01:00:5e:00:00:fc, ethertype IPv4 (0x0800), length 86: (tos 0x0, ttl 1, id 21144, offset 0, flags [none], proto UDP (17), length 72)
    100.64.129.38.55785 > 224.0.0.252.5355: [udp sum ok] UDP, length 44
	0x0000:  4500 0048 5298 0000 0111 a0aa 6440 8126  E..HR.......d@.&
	0x0010:  e000 00fc d9e9 14eb 0034 f486 407b 0000  .........4..@{..
	0x0020:  0001 0000 0000 0000 0231 3103 3133 3402  .........11.134.
	0x0030:  3634 0331 3030 0769 6e2d 6164 6472 0461  64.100.in-addr.a
	0x0040:  7270 6100 000c 0001                      rpa.....
06:18:08.796704 f8:89:d2:b1:55:05 > 33:33:00:01:00:03, ethertype IPv6 (0x86dd), length 106: (flowlabel 0x61e96, hlim 1, next-header UDP (17) payload length: 52) fe80::e617:cd12:9b9b:6c56.55785 > ff02::1:3.5355: [udp sum ok] UDP, length 44
	0x0000:  6006 1e96 0034 1101 fe80 0000 0000 0000  `....4..........
	0x0010:  e617 cd12 9b9b 6c56 ff02 0000 0000 0000  ......lV........
	0x0020:  0000 0000 0001 0003 d9e9 14eb 0034 0246  .............4.F
	0x0030:  407b 0000 0001 0000 0000 0000 0231 3103  @{...........11.
	0x0040:  3133 3402 3634 0331 3030 0769 6e2d 6164  134.64.100.in-ad
	0x0050:  6472 0461 7270 6100 000c 0001            dr.arpa.....
06:18:10.331257 f8:89:d2:b1:55:05 > 01:00:5e:00:00:fc, ethertype IPv4 (0x0800), length 87: (tos 0x0, ttl 1, id 21145, offset 0, flags [none], proto UDP (17), length 73)
    100.64.129.38.60578 > 224.0.0.252.5355: [udp sum ok] UDP, length 45
	0x0000:  4500 0049 5299 0000 0111 a0a8 6440 8126  E..IR.......d@.&
	0x0010:  e000 00fc eca2 14eb 0035 f3b2 ed98 0000  .........5......
	0x0020:  0001 0000 0000 0000 0331 3935 0331 3332  .........195.132
	0x0030:  0236 3403 3130 3007 696e 2d61 6464 7204  .64.100.in-addr.
	0x0040:  6172 7061 0000 0c00 01                   arpa.....
06:18:10.331321 f8:89:d2:b1:55:05 > 33:33:00:01:00:03, ethertype IPv6 (0x86dd), length 107: (flowlabel 0x548fb, hlim 1, next-header UDP (17) payload length: 53) fe80::e617:cd12:9b9b:6c56.60578 > ff02::1:3.5355: [udp sum ok] UDP, length 45
	0x0000:  6005 48fb 0035 1101 fe80 0000 0000 0000  `.H..5..........
	0x0010:  e617 cd12 9b9b 6c56 ff02 0000 0000 0000  ......lV........
	0x0020:  0000 0000 0001 0003 eca2 14eb 0035 0172  .............5.r
	0x0030:  ed98 0000 0001 0000 0000 0000 0331 3935  .............195
	0x0040:  0331 3332 0236 3403 3130 3007 696e 2d61  .132.64.100.in-a
	0x0050:  6464 7204 6172 7061 0000 0c00 01         ddr.arpa.....
06:18:10.835105 f8:89:d2:b1:55:05 > 33:33:00:01:00:03, ethertype IPv6 (0x86dd), length 107: (flowlabel 0x548fb, hlim 1, next-header UDP (17) payload length: 53) fe80::e617:cd12:9b9b:6c56.60578 > ff02::1:3.5355: [udp sum ok] UDP, length 45
	0x0000:  6005 48fb 0035 1101 fe80 0000 0000 0000  `.H..5..........
	0x0010:  e617 cd12 9b9b 6c56 ff02 0000 0000 0000  ......lV........
	0x0020:  0000 0000 0001 0003 eca2 14eb 0035 0172  .............5.r
	0x0030:  ed98 0000 0001 0000 0000 0000 0331 3935  .............195
	0x0040:  0331 3332 0236 3403 3130 3007 696e 2d61  .132.64.100.in-a
	0x0050:  6464 7204 6172 7061 0000 0c00 01         ddr.arpa.....
06:18:10.846019 f8:89:d2:b1:55:05 > 01:00:5e:00:00:fc, ethertype IPv4 (0x0800), length 87: (tos 0x0, ttl 1, id 21146, offset 0, flags [none], proto UDP (17), length 73)
    100.64.129.38.60578 > 224.0.0.252.5355: [udp sum ok] UDP, length 45
	0x0000:  4500 0049 529a 0000 0111 a0a7 6440 8126  E..IR.......d@.&
	0x0010:  e000 00fc eca2 14eb 0035 f3b2 ed98 0000  .........5......
	0x0020:  0001 0000 0000 0000 0331 3935 0331 3332  .........195.132
	0x0030:  0236 3403 3130 3007 696e 2d61 6464 7204  .64.100.in-addr.
	0x0040:  6172 7061 0000 0c00 01                   arpa.....
06:18:11.041945 c0:b6:f9:e5:84:ea > 33:33:00:01:00:03, ethertype IPv6 (0x86dd), length 95: (flowlabel 0x0a3cc, hlim 1, next-header UDP (17) payload length: 41) fe80::cfff:76ca:e9d5:c54.49834 > ff02::1:3.5355: [udp sum ok] UDP, length 33
	0x0000:  6000 a3cc 0029 1101 fe80 0000 0000 0000  `....)..........
	0x0010:  cfff 76ca e9d5 0c54 ff02 0000 0000 0000  ..v....T........
	0x0020:  0000 0000 0001 0003 c2aa 14eb 0029 06a4  .............)..
	0x0030:  25e9 0000 0001 0000 0000 0000 0f42 5257  %............BRW
	0x0040:  4543 3543 3638 4535 3737 3038 0000 0100  EC5C68E57708....
	0x0050:  01                                       .
06:18:11.041945 c0:b6:f9:e5:84:ea > 01:00:5e:00:00:fc, ethertype IPv4 (0x0800), length 75: (tos 0x0, ttl 1, id 21840, offset 0, flags [none], proto UDP (17), length 61)
    100.64.135.199.49834 > 224.0.0.252.5355: [udp sum ok] UDP, length 33
	0x0000:  4500 003d 5550 0000 0111 975c 6440 87c7  E..=UP.....\d@..
	0x0010:  e000 00fc c2aa 14eb 0029 741b 25e9 0000  .........)t.%...
	0x0020:  0001 0000 0000 0000 0f42 5257 4543 3543  .........BRWEC5C
	0x0030:  3638 4535 3737 3038 0000 0100 01         68E57708.....
06:18:11.450334 c0:b6:f9:e5:84:ea > 33:33:00:01:00:03, ethertype IPv6 (0x86dd), length 95: (flowlabel 0x0a3cc, hlim 1, next-header UDP (17) payload length: 41) fe80::cfff:76ca:e9d5:c54.49834 > ff02::1:3.5355: [udp sum ok] UDP, length 33
	0x0000:  6000 a3cc 0029 1101 fe80 0000 0000 0000  `....)..........
	0x0010:  cfff 76ca e9d5 0c54 ff02 0000 0000 0000  ..v....T........
	0x0020:  0000 0000 0001 0003 c2aa 14eb 0029 06a4  .............)..
	0x0030:  25e9 0000 0001 0000 0000 0000 0f42 5257  %............BRW
	0x0040:  4543 3543 3638 4535 3737 3038 0000 0100  EC5C68E57708....
	0x0050:  01                                       .
06:18:11.450334 c0:b6:f9:e5:84:ea > 01:00:5e:00:00:fc, ethertype IPv4 (0x0800), length 75: (tos 0x0, ttl 1, id 21841, offset 0, flags [none], proto UDP (17), length 61)
    100.64.135.199.49834 > 224.0.0.252.5355: [udp sum ok] UDP, length 33
	0x0000:  4500 003d 5551 0000 0111 975b 6440 87c7  E..=UQ.....[d@..
	0x0010:  e000 00fc c2aa 14eb 0029 741b 25e9 0000  .........)t.%...
	0x0020:  0001 0000 0000 0000 0f42 5257 4543 3543  .........BRWEC5C
	0x0030:  3638 4535 3737 3038 0000 0100 01         68E57708.....
06:18:13.808140 c0:b6:f9:e5:84:ea > 33:33:00:01:00:03, ethertype IPv6 (0x86dd), length 95: (flowlabel 0x9306e, hlim 1, next-header UDP (17) payload length: 41) fe80::cfff:76ca:e9d5:c54.60080 > ff02::1:3.5355: [udp sum ok] UDP, length 33
	0x0000:  6009 306e 0029 1101 fe80 0000 0000 0000  `.0n.)..........
	0x0010:  cfff 76ca e9d5 0c54 ff02 0000 0000 0000  ..v....T........
	0x0020:  0000 0000 0001 0003 eab0 14eb 0029 703f  .............)p?
	0x0030:  9447 0000 0001 0000 0000 0000 0f42 5257  .G...........BRW
	0x0040:  4543 3543 3638 4535 3737 3038 0000 0100  EC5C68E57708....
	0x0050:  01                                       .
06:18:13.808141 c0:b6:f9:e5:84:ea > 01:00:5e:00:00:fc, ethertype IPv4 (0x0800), length 75: (tos 0x0, ttl 1, id 21842, offset 0, flags [none], proto UDP (17), length 61)
    100.64.135.199.60080 > 224.0.0.252.5355: [udp sum ok] UDP, length 33
	0x0000:  4500 003d 5552 0000 0111 975a 6440 87c7  E..=UR.....Zd@..
	0x0010:  e000 00fc eab0 14eb 0029 ddb6 9447 0000  .........)...G..
	0x0020:  0001 0000 0000 0000 0f42 5257 4543 3543  .........BRWEC5C
	0x0030:  3638 4535 3737 3038 0000 0100 01         68E57708.....
06:18:14.213880 c0:b6:f9:e5:84:ea > 33:33:00:01:00:03, ethertype IPv6 (0x86dd), length 95: (flowlabel 0x9306e, hlim 1, next-header UDP (17) payload length: 41) fe80::cfff:76ca:e9d5:c54.60080 > ff02::1:3.5355: [udp sum ok] UDP, length 33
	0x0000:  6009 306e 0029 1101 fe80 0000 0000 0000  `.0n.)..........
	0x0010:  cfff 76ca e9d5 0c54 ff02 0000 0000 0000  ..v....T........
	0x0020:  0000 0000 0001 0003 eab0 14eb 0029 703f  .............)p?
	0x0030:  9447 0000 0001 0000 0000 0000 0f42 5257  .G...........BRW
	0x0040:  4543 3543 3638 4535 3737 3038 0000 0100  EC5C68E57708....
	0x0050:  01                                       .
06:18:14.216612 c0:b6:f9:e5:84:ea > 01:00:5e:00:00:fc, ethertype IPv4 (0x0800), length 75: (tos 0x0, ttl 1, id 21843, offset 0, flags [none], proto UDP (17), length 61)
    100.64.135.199.60080 > 224.0.0.252.5355: [udp sum ok] UDP, length 33
	0x0000:  4500 003d 5553 0000 0111 9759 6440 87c7  E..=US.....Yd@..
	0x0010:  e000 00fc eab0 14eb 0029 ddb6 9447 0000  .........)...G..
	0x0020:  0001 0000 0000 0000 0f42 5257 4543 3543  .........BRWEC5C
	0x0030:  3638 4535 3737 3038 0000 0100 01         68E57708.....
06:18:14.424029 a0:a8:cd:3b:99:c6 > 33:33:00:01:00:03, ethertype IPv6 (0x86dd), length 95: (flowlabel 0x4443e, hlim 1, next-header UDP (17) payload length: 41) fe80::b069:e03d:4223:82a5.50953 > ff02::1:3.5355: [udp sum ok] UDP, length 33
	0x0000:  6004 443e 0029 1101 fe80 0000 0000 0000  `.D>.)..........
	0x0010:  b069 e03d 4223 82a5 ff02 0000 0000 0000  .i.=B#..........
	0x0020:  0000 0000 0001 0003 c709 14eb 0029 d584  .............)..
	0x0030:  3fe9 0000 0001 0000 0000 0000 0f44 4553  ?............DES
	0x0040:  4b54 4f50 2d4e 3533 334a 3638 0000 ff00  KTOP-N533J68....
	0x0050:  01                                       .
06:18:14.424030 a0:a8:cd:3b:99:c6 > 01:00:5e:00:00:fc, ethertype IPv4 (0x0800), length 75: (tos 0x0, ttl 1, id 14905, offset 0, flags [none], proto UDP (17), length 61)
    100.64.134.224.50953 > 224.0.0.252.5355: [udp sum ok] UDP, length 33
	0x0000:  4500 003d 3a39 0000 0111 b35a 6440 86e0  E..=:9.....Zd@..
	0x0010:  e000 00fc c709 14eb 0029 5c5f 3fe9 0000  .........)\_?...
	0x0020:  0001 0000 0000 0000 0f44 4553 4b54 4f50  .........DESKTOP
	0x0030:  2d4e 3533 334a 3638 0000 ff00 01         -N533J68.....
06:18:14.837722 a0:a8:cd:3b:99:c6 > 33:33:00:01:00:03, ethertype IPv6 (0x86dd), length 95: (flowlabel 0x9fec3, hlim 1, next-header UDP (17) payload length: 41) fe80::b069:e03d:4223:82a5.50953 > ff02::1:3.5355: [udp sum ok] UDP, length 33
	0x0000:  6009 fec3 0029 1101 fe80 0000 0000 0000  `....)..........
	0x0010:  b069 e03d 4223 82a5 ff02 0000 0000 0000  .i.=B#..........
	0x0020:  0000 0000 0001 0003 c709 14eb 0029 d584  .............)..
	0x0030:  3fe9 0000 0001 0000 0000 0000 0f44 4553  ?............DES
	0x0040:  4b54 4f50 2d4e 3533 334a 3638 0000 ff00  KTOP-N533J68....
	0x0050:  01                                       .
06:18:14.837722 a0:a8:cd:3b:99:c6 > 01:00:5e:00:00:fc, ethertype IPv4 (0x0800), length 75: (tos 0x0, ttl 1, id 14906, offset 0, flags [none], proto UDP (17), length 61)
    100.64.134.224.50953 > 224.0.0.252.5355: [udp sum ok] UDP, length 33
	0x0000:  4500 003d 3a3a 0000 0111 b359 6440 86e0  E..=::.....Yd@..
	0x0010:  e000 00fc c709 14eb 0029 5c5f 3fe9 0000  .........)\_?...
	0x0020:  0001 0000 0000 0000 0f44 4553 4b54 4f50  .........DESKTOP
	0x0030:  2d4e 3533 334a 3638 0000 ff00 01         -N533J68.....
06:18:15.247097 a0:a8:cd:3b:99:c6 > 01:00:5e:00:00:fc, ethertype IPv4 (0x0800), length 75: (tos 0x0, ttl 1, id 14907, offset 0, flags [none], proto UDP (17), length 61)
    100.64.134.224.61974 > 224.0.0.252.5355: [udp sum ok] UDP, length 33
	0x0000:  4500 003d 3a3b 0000 0111 b358 6440 86e0  E..=:;.....Xd@..
	0x0010:  e000 00fc f216 14eb 0029 0e06 6335 0000  .........)..c5..
	0x0020:  0001 0000 0000 0000 0f44 4553 4b54 4f50  .........DESKTOP
	0x0030:  2d4e 3533 334a 3638 0000 ff00 01         -N533J68.....
06:18:15.247254 a0:a8:cd:3b:99:c6 > 33:33:00:01:00:03, ethertype IPv6 (0x86dd), length 95: (flowlabel 0xadd5f, hlim 1, next-header UDP (17) payload length: 41) fe80::b069:e03d:4223:82a5.61974 > ff02::1:3.5355: [udp sum ok] UDP, length 33
	0x0000:  600a dd5f 0029 1101 fe80 0000 0000 0000  `.._.)..........
	0x0010:  b069 e03d 4223 82a5 ff02 0000 0000 0000  .i.=B#..........
	0x0020:  0000 0000 0001 0003 f216 14eb 0029 872b  .............).+
	0x0030:  6335 0000 0001 0000 0000 0000 0f44 4553  c5...........DES
	0x0040:  4b54 4f50 2d4e 3533 334a 3638 0000 ff00  KTOP-N533J68....
	0x0050:  01                                       .
06:18:16.476331 a0:a8:cd:3b:99:c6 > 01:00:5e:00:00:fc, ethertype IPv4 (0x0800), length 75: (tos 0x0, ttl 1, id 14908, offset 0, flags [none], proto UDP (17), length 61)
    100.64.134.224.57430 > 224.0.0.252.5355: [udp sum ok] UDP, length 33
	0x0000:  4500 003d 3a3c 0000 0111 b357 6440 86e0  E..=:<.....Wd@..
	0x0010:  e000 00fc e056 14eb 0029 3fb1 434a 0000  .....V...)?.CJ..
	0x0020:  0001 0000 0000 0000 0f44 4553 4b54 4f50  .........DESKTOP
	0x0030:  2d4e 3533 334a 3638 0000 ff00 01         -N533J68.....
06:18:16.476407 a0:a8:cd:3b:99:c6 > 33:33:00:01:00:03, ethertype IPv6 (0x86dd), length 95: (flowlabel 0xf02c5, hlim 1, next-header UDP (17) payload length: 41) fe80::b069:e03d:4223:82a5.57430 > ff02::1:3.5355: [udp sum ok] UDP, length 33
	0x0000:  600f 02c5 0029 1101 fe80 0000 0000 0000  `....)..........
	0x0010:  b069 e03d 4223 82a5 ff02 0000 0000 0000  .i.=B#..........
	0x0020:  0000 0000 0001 0003 e056 14eb 0029 b8d6  .........V...)..
	0x0030:  434a 0000 0001 0000 0000 0000 0f44 4553  CJ...........DES
	0x0040:  4b54 4f50 2d4e 3533 334a 3638 0000 ff00  KTOP-N533J68....
	0x0050:  01                                       .
06:18:16.678776 c0:b6:f9:e5:84:ea > 33:33:00:01:00:03, ethertype IPv6 (0x86dd), length 95: (flowlabel 0x350b9, hlim 1, next-header UDP (17) payload length: 41) fe80::cfff:76ca:e9d5:c54.53784 > ff02::1:3.5355: [udp sum ok] UDP, length 33
	0x0000:  6003 50b9 0029 1101 fe80 0000 0000 0000  `.P..)..........
	0x0010:  cfff 76ca e9d5 0c54 ff02 0000 0000 0000  ..v....T........
	0x0020:  0000 0000 0001 0003 d218 14eb 0029 dedd  .............)..
	0x0030:  3e41 0000 0001 0000 0000 0000 0f42 5257  >A...........BRW
	0x0040:  4543 3543 3638 4535 3737 3038 0000 0100  EC5C68E57708....
	0x0050:  01                                       .
06:18:17.081607 c0:b6:f9:e5:84:ea > 33:33:00:01:00:03, ethertype IPv6 (0x86dd), length 95: (flowlabel 0xec5c3, hlim 1, next-header UDP (17) payload length: 41) fe80::cfff:76ca:e9d5:c54.53784 > ff02::1:3.5355: [udp sum ok] UDP, length 33
	0x0000:  600e c5c3 0029 1101 fe80 0000 0000 0000  `....)..........
	0x0010:  cfff 76ca e9d5 0c54 ff02 0000 0000 0000  ..v....T........
	0x0020:  0000 0000 0001 0003 d218 14eb 0029 dedd  .............)..
	0x0030:  3e41 0000 0001 0000 0000 0000 0f42 5257  >A...........BRW
	0x0040:  4543 3543 3638 4535 3737 3038 0000 0100  EC5C68E57708....
	0x0050:  01                                       .
06:18:17.081805 c0:b6:f9:e5:84:ea > 01:00:5e:00:00:fc, ethertype IPv4 (0x0800), length 75: (tos 0x0, ttl 1, id 21845, offset 0, flags [none], proto UDP (17), length 61)
    100.64.135.199.53784 > 224.0.0.252.5355: [udp sum ok] UDP, length 33
	0x0000:  4500 003d 5555 0000 0111 9757 6440 87c7  E..=UU.....Wd@..
	0x0010:  e000 00fc d218 14eb 0029 4c55 3e41 0000  .........)LU>A..
	0x0020:  0001 0000 0000 0000 0f42 5257 4543 3543  .........BRWEC5C
	0x0030:  3638 4535 3737 3038 0000 0100 01         68E57708.....
06:18:17.903170 bc:6e:e2:b7:66:be > 01:00:5e:00:00:fc, ethertype IPv4 (0x0800), length 70: (tos 0x0, ttl 1, id 54498, offset 0, flags [none], proto UDP (17), length 56)
    100.64.132.86.60187 > 224.0.0.252.5355: [udp sum ok] UDP, length 28
	0x0000:  4500 0038 d4e2 0000 0111 1b40 6440 8456  E..8.......@d@.V
	0x0010:  e000 00fc eb1b 14eb 0024 1d97 a71a 0000  .........$......
	0x0020:  0001 0000 0000 0000 0a41 522d 5558 3538  .........AR-UX58
	0x0030:  325a 5700 00ff 0001                      2ZW.....
06:18:19.450291 c0:b6:f9:e5:84:ea > 01:00:5e:00:00:fc, ethertype IPv4 (0x0800), length 75: (tos 0x0, ttl 1, id 21846, offset 0, flags [none], proto UDP (17), length 61)
    100.64.135.199.50262 > 224.0.0.252.5355: [udp sum ok] UDP, length 33
	0x0000:  4500 003d 5556 0000 0111 9756 6440 87c7  E..=UV.....Vd@..
	0x0010:  e000 00fc c456 14eb 0029 65f4 3264 0000  .....V...)e.2d..
	0x0020:  0001 0000 0000 0000 0f42 5257 4543 3543  .........BRWEC5C
	0x0030:  3638 4535 3737 3038 0000 0100 01         68E57708.....
06:18:19.450495 c0:b6:f9:e5:84:ea > 33:33:00:01:00:03, ethertype IPv6 (0x86dd), length 95: (flowlabel 0x5e0ed, hlim 1, next-header UDP (17) payload length: 41) fe80::cfff:76ca:e9d5:c54.50262 > ff02::1:3.5355: [udp sum ok] UDP, length 33
	0x0000:  6005 e0ed 0029 1101 fe80 0000 0000 0000  `....)..........
	0x0010:  cfff 76ca e9d5 0c54 ff02 0000 0000 0000  ..v....T........
	0x0020:  0000 0000 0001 0003 c456 14eb 0029 f87c  .........V...).|
	0x0030:  3264 0000 0001 0000 0000 0000 0f42 5257  2d...........BRW
	0x0040:  4543 3543 3638 4535 3737 3038 0000 0100  EC5C68E57708....
	0x0050:  01                                       .
06:18:19.853416 c0:b6:f9:e5:84:ea > 01:00:5e:00:00:fc, ethertype IPv4 (0x0800), length 75: (tos 0x0, ttl 1, id 21847, offset 0, flags [none], proto UDP (17), length 61)
    100.64.135.199.50262 > 224.0.0.252.5355: [udp sum ok] UDP, length 33
	0x0000:  4500 003d 5557 0000 0111 9755 6440 87c7  E..=UW.....Ud@..
	0x0010:  e000 00fc c456 14eb 0029 65f4 3264 0000  .....V...)e.2d..
	0x0020:  0001 0000 0000 0000 0f42 5257 4543 3543  .........BRWEC5C
	0x0030:  3638 4535 3737 3038 0000 0100 01         68E57708.....
06:18:19.853416 c0:b6:f9:e5:84:ea > 33:33:00:01:00:03, ethertype IPv6 (0x86dd), length 95: (flowlabel 0x5e0ed, hlim 1, next-header UDP (17) payload length: 41) fe80::cfff:76ca:e9d5:c54.50262 > ff02::1:3.5355: [udp sum ok] UDP, length 33
	0x0000:  6005 e0ed 0029 1101 fe80 0000 0000 0000  `....)..........
	0x0010:  cfff 76ca e9d5 0c54 ff02 0000 0000 0000  ..v....T........
	0x0020:  0000 0000 0001 0003 c456 14eb 0029 f87c  .........V...).|
	0x0030:  3264 0000 0001 0000 0000 0000 0f42 5257  2d...........BRW
	0x0040:  4543 3543 3638 4535 3737 3038 0000 0100  EC5C68E57708....
	0x0050:  01                                       .
06:18:20.366057 6e:b3:e5:f1:5a:40 > 01:00:5e:00:00:fc, ethertype IPv4 (0x0800), length 75: (tos 0x0, ttl 1, id 45819, offset 0, flags [none], proto UDP (17), length 61)
    100.64.133.7.51350 > 224.0.0.252.5355: [udp sum ok] UDP, length 33
	0x0000:  4500 003d b2fb 0000 0111 3c71 6440 8507  E..=......<qd@..
	0x0010:  e000 00fc c896 14eb 0029 7929 0121 0000  .........)y).!..
	0x0020:  0001 0000 0000 0000 0f4a 555a 4553 2d5a  .........JUZES-Z
	0x0030:  454e 424f 4f4b 2d50 0000 0100 01         ENBOOK-P.....
06:18:20.366057 6e:b3:e5:f1:5a:40 > 01:00:5e:00:00:fc, ethertype IPv4 (0x0800), length 75: (tos 0x0, ttl 1, id 45820, offset 0, flags [none], proto UDP (17), length 61)
    100.64.133.7.61375 > 224.0.0.252.5355: [udp sum ok] UDP, length 33
	0x0000:  4500 003d b2fc 0000 0111 3c70 6440 8507  E..=......<pd@..
	0x0010:  e000 00fc efbf 14eb 0029 0eef 2932 0000  .........)..)2..
	0x0020:  0001 0000 0000 0000 0f4a 555a 4553 2d5a  .........JUZES-Z
	0x0030:  454e 424f 4f4b 2d50 0000 1c00 01         ENBOOK-P.....
06:18:20.366296 6e:b3:e5:f1:5a:40 > 33:33:00:01:00:03, ethertype IPv6 (0x86dd), length 95: (flowlabel 0x80197, hlim 1, next-header UDP (17) payload length: 41) fe80::f100:30fd:eccc:c76c.51350 > ff02::1:3.5355: [udp sum ok] UDP, length 33
	0x0000:  6008 0197 0029 1101 fe80 0000 0000 0000  `....)..........
	0x0010:  f100 30fd eccc c76c ff02 0000 0000 0000  ..0....l........
	0x0020:  0000 0000 0001 0003 c896 14eb 0029 6fae  .............)o.
	0x0030:  0121 0000 0001 0000 0000 0000 0f4a 555a  .!...........JUZ
	0x0040:  4553 2d5a 454e 424f 4f4b 2d50 0000 0100  ES-ZENBOOK-P....
	0x0050:  01                                       .
06:18:20.366296 6e:b3:e5:f1:5a:40 > 33:33:00:01:00:03, ethertype IPv6 (0x86dd), length 95: (flowlabel 0xe4150, hlim 1, next-header UDP (17) payload length: 41) fe80::f100:30fd:eccc:c76c.61375 > ff02::1:3.5355: [udp sum ok] UDP, length 33
	0x0000:  600e 4150 0029 1101 fe80 0000 0000 0000  `.AP.)..........
	0x0010:  f100 30fd eccc c76c ff02 0000 0000 0000  ..0....l........
	0x0020:  0000 0000 0001 0003 efbf 14eb 0029 0574  .............).t
	0x0030:  2932 0000 0001 0000 0000 0000 0f4a 555a  )2...........JUZ
	0x0040:  4553 2d5a 454e 424f 4f4b 2d50 0000 1c00  ES-ZENBOOK-P....
	0x0050:  01                                       .
06:18:20.774924 6e:b3:e5:f1:5a:40 > 33:33:00:01:00:03, ethertype IPv6 (0x86dd), length 95: (flowlabel 0xe4150, hlim 1, next-header UDP (17) payload length: 41) fe80::f100:30fd:eccc:c76c.61375 > ff02::1:3.5355: [udp sum ok] UDP, length 33
	0x0000:  600e 4150 0029 1101 fe80 0000 0000 0000  `.AP.)..........
	0x0010:  f100 30fd eccc c76c ff02 0000 0000 0000  ..0....l........
	0x0020:  0000 0000 0001 0003 efbf 14eb 0029 0574  .............).t
	0x0030:  2932 0000 0001 0000 0000 0000 0f4a 555a  )2...........JUZ
	0x0040:  4553 2d5a 454e 424f 4f4b 2d50 0000 1c00  ES-ZENBOOK-P....
	0x0050:  01                                       .
06:18:20.774925 6e:b3:e5:f1:5a:40 > 33:33:00:01:00:03, ethertype IPv6 (0x86dd), length 95: (flowlabel 0x80197, hlim 1, next-header UDP (17) payload length: 41) fe80::f100:30fd:eccc:c76c.51350 > ff02::1:3.5355: [udp sum ok] UDP, length 33
	0x0000:  6008 0197 0029 1101 fe80 0000 0000 0000  `....)..........
	0x0010:  f100 30fd eccc c76c ff02 0000 0000 0000  ..0....l........
	0x0020:  0000 0000 0001 0003 c896 14eb 0029 6fae  .............)o.
	0x0030:  0121 0000 0001 0000 0000 0000 0f4a 555a  .!...........JUZ
	0x0040:  4553 2d5a 454e 424f 4f4b 2d50 0000 0100  ES-ZENBOOK-P....
	0x0050:  01                                       .
06:18:20.774925 6e:b3:e5:f1:5a:40 > 01:00:5e:00:00:fc, ethertype IPv4 (0x0800), length 75: (tos 0x0, ttl 1, id 45821, offset 0, flags [none], proto UDP (17), length 61)
    100.64.133.7.51350 > 224.0.0.252.5355: [udp sum ok] UDP, length 33
	0x0000:  4500 003d b2fd 0000 0111 3c6f 6440 8507  E..=......<od@..
	0x0010:  e000 00fc c896 14eb 0029 7929 0121 0000  .........)y).!..
	0x0020:  0001 0000 0000 0000 0f4a 555a 4553 2d5a  .........JUZES-Z
	0x0030:  454e 424f 4f4b 2d50 0000 0100 01         ENBOOK-P.....
06:18:20.774925 6e:b3:e5:f1:5a:40 > 01:00:5e:00:00:fc, ethertype IPv4 (0x0800), length 75: (tos 0x0, ttl 1, id 45822, offset 0, flags [none], proto UDP (17), length 61)
    100.64.133.7.61375 > 224.0.0.252.5355: [udp sum ok] UDP, length 33
	0x0000:  4500 003d b2fe 0000 0111 3c6e 6440 8507  E..=......<nd@..
	0x0010:  e000 00fc efbf 14eb 0029 0eef 2932 0000  .........)..)2..
	0x0020:  0001 0000 0000 0000 0f4a 555a 4553 2d5a  .........JUZES-Z
	0x0030:  454e 424f 4f4b 2d50 0000 1c00 01         ENBOOK-P.....
06:18:21.392557 6e:b3:e5:f1:5a:40 > 33:33:00:01:00:03, ethertype IPv6 (0x86dd), length 95: (flowlabel 0xb7b47, hlim 1, next-header UDP (17) payload length: 41) fe80::f100:30fd:eccc:c76c.49926 > ff02::1:3.5355: [udp sum ok] UDP, length 33
	0x0000:  600b 7b47 0029 1101 fe80 0000 0000 0000  `.{G.)..........
	0x0010:  f100 30fd eccc c76c ff02 0000 0000 0000  ..0....l........
	0x0020:  0000 0000 0001 0003 c306 14eb 0029 77a4  .............)w.
	0x0030:  feba 0000 0001 0000 0000 0000 0f4a 555a  .............JUZ
	0x0040:  4553 2d5a 454e 424f 4f4b 2d50 0000 0100  ES-ZENBOOK-P....
	0x0050:  01                                       .
06:18:21.392557 6e:b3:e5:f1:5a:40 > 33:33:00:01:00:03, ethertype IPv6 (0x86dd), length 95: (flowlabel 0x993b8, hlim 1, next-header UDP (17) payload length: 41) fe80::f100:30fd:eccc:c76c.57292 > ff02::1:3.5355: [udp sum ok] UDP, length 33
	0x0000:  6009 93b8 0029 1101 fe80 0000 0000 0000  `....)..........
	0x0010:  f100 30fd eccc c76c ff02 0000 0000 0000  ..0....l........
	0x0020:  0000 0000 0001 0003 dfcc 14eb 0029 f850  .............).P
	0x0030:  4648 0000 0001 0000 0000 0000 0f4a 555a  FH...........JUZ
	0x0040:  4553 2d5a 454e 424f 4f4b 2d50 0000 1c00  ES-ZENBOOK-P....
	0x0050:  01                                       .
06:18:21.392665 6e:b3:e5:f1:5a:40 > 01:00:5e:00:00:fc, ethertype IPv4 (0x0800), length 75: (tos 0x0, ttl 1, id 45823, offset 0, flags [none], proto UDP (17), length 61)
    100.64.133.7.49926 > 224.0.0.252.5355: [udp sum ok] UDP, length 33
	0x0000:  4500 003d b2ff 0000 0111 3c6d 6440 8507  E..=......<md@..
	0x0010:  e000 00fc c306 14eb 0029 811f feba 0000  .........)......
	0x0020:  0001 0000 0000 0000 0f4a 555a 4553 2d5a  .........JUZES-Z
	0x0030:  454e 424f 4f4b 2d50 0000 0100 01         ENBOOK-P.....
06:18:21.392734 6e:b3:e5:f1:5a:40 > 01:00:5e:00:00:fc, ethertype IPv4 (0x0800), length 75: (tos 0x0, ttl 1, id 45824, offset 0, flags [none], proto UDP (17), length 61)
    100.64.133.7.57292 > 224.0.0.252.5355: [udp sum ok] UDP, length 33
	0x0000:  4500 003d b300 0000 0111 3c6c 6440 8507  E..=......<ld@..
	0x0010:  e000 00fc dfcc 14eb 0029 01cc 4648 0000  .........)..FH..
	0x0020:  0001 0000 0000 0000 0f4a 555a 4553 2d5a  .........JUZES-Z
	0x0030:  454e 424f 4f4b 2d50 0000 1c00 01         ENBOOK-P.....
06:18:21.795035 6e:b3:e5:f1:5a:40 > 33:33:00:01:00:03, ethertype IPv6 (0x86dd), length 95: (flowlabel 0x993b8, hlim 1, next-header UDP (17) payload length: 41) fe80::f100:30fd:eccc:c76c.57292 > ff02::1:3.5355: [udp sum ok] UDP, length 33
	0x0000:  6009 93b8 0029 1101 fe80 0000 0000 0000  `....)..........
	0x0010:  f100 30fd eccc c76c ff02 0000 0000 0000  ..0....l........
	0x0020:  0000 0000 0001 0003 dfcc 14eb 0029 f850  .............).P
	0x0030:  4648 0000 0001 0000 0000 0000 0f4a 555a  FH...........JUZ
	0x0040:  4553 2d5a 454e 424f 4f4b 2d50 0000 1c00  ES-ZENBOOK-P....
	0x0050:  01                                       .
06:18:21.795036 6e:b3:e5:f1:5a:40 > 33:33:00:01:00:03, ethertype IPv6 (0x86dd), length 95: (flowlabel 0xb7b47, hlim 1, next-header UDP (17) payload length: 41) fe80::f100:30fd:eccc:c76c.49926 > ff02::1:3.5355: [udp sum ok] UDP, length 33
	0x0000:  600b 7b47 0029 1101 fe80 0000 0000 0000  `.{G.)..........
	0x0010:  f100 30fd eccc c76c ff02 0000 0000 0000  ..0....l........
	0x0020:  0000 0000 0001 0003 c306 14eb 0029 77a4  .............)w.
	0x0030:  feba 0000 0001 0000 0000 0000 0f4a 555a  .............JUZ
	0x0040:  4553 2d5a 454e 424f 4f4b 2d50 0000 0100  ES-ZENBOOK-P....
	0x0050:  01                                       .
06:18:21.795036 6e:b3:e5:f1:5a:40 > 01:00:5e:00:00:fc, ethertype IPv4 (0x0800), length 75: (tos 0x0, ttl 1, id 45826, offset 0, flags [none], proto UDP (17), length 61)
    100.64.133.7.57292 > 224.0.0.252.5355: [udp sum ok] UDP, length 33
	0x0000:  4500 003d b302 0000 0111 3c6a 6440 8507  E..=......<jd@..
	0x0010:  e000 00fc dfcc 14eb 0029 01cc 4648 0000  .........)..FH..
	0x0020:  0001 0000 0000 0000 0f4a 555a 4553 2d5a  .........JUZES-Z
	0x0030:  454e 424f 4f4b 2d50 0000 1c00 01         ENBOOK-P.....
06:18:22.311540 c0:b6:f9:e5:84:ea > 01:00:5e:00:00:fc, ethertype IPv4 (0x0800), length 75: (tos 0x0, ttl 1, id 21848, offset 0, flags [none], proto UDP (17), length 61)
    100.64.135.199.63455 > 224.0.0.252.5355: [udp sum ok] UDP, length 33
	0x0000:  4500 003d 5558 0000 0111 9754 6440 87c7  E..=UX.....Td@..
	0x0010:  e000 00fc f7df 14eb 0029 a39b c133 0000  .........)...3..
	0x0020:  0001 0000 0000 0000 0f42 5257 4543 3543  .........BRWEC5C
	0x0030:  3638 4535 3737 3038 0000 0100 01         68E57708.....
06:18:22.311540 c0:b6:f9:e5:84:ea > 33:33:00:01:00:03, ethertype IPv6 (0x86dd), length 95: (flowlabel 0x18138, hlim 1, next-header UDP (17) payload length: 41) fe80::cfff:76ca:e9d5:c54.63455 > ff02::1:3.5355: [udp sum ok] UDP, length 33
	0x0000:  6001 8138 0029 1101 fe80 0000 0000 0000  `..8.)..........
	0x0010:  cfff 76ca e9d5 0c54 ff02 0000 0000 0000  ..v....T........
	0x0020:  0000 0000 0001 0003 f7df 14eb 0029 3624  .............)6$
	0x0030:  c133 0000 0001 0000 0000 0000 0f42 5257  .3...........BRW
	0x0040:  4543 3543 3638 4535 3737 3038 0000 0100  EC5C68E57708....
	0x0050:  01                                       .
06:18:22.417036 6e:b3:e5:f1:5a:40 > 33:33:00:01:00:03, ethertype IPv6 (0x86dd), length 95: (flowlabel 0x8593e, hlim 1, next-header UDP (17) payload length: 41) fe80::f100:30fd:eccc:c76c.52649 > ff02::1:3.5355: [udp sum ok] UDP, length 33
	0x0000:  6008 593e 0029 1101 fe80 0000 0000 0000  `.Y>.)..........
	0x0010:  f100 30fd eccc c76c ff02 0000 0000 0000  ..0....l........
	0x0020:  0000 0000 0001 0003 cda9 14eb 0029 75af  .............)u.
	0x0030:  f60c 0000 0001 0000 0000 0000 0f4a 555a  .............JUZ
	0x0040:  4553 2d5a 454e 424f 4f4b 2d50 0000 0100  ES-ZENBOOK-P....
	0x0050:  01                                       .
06:18:22.417036 6e:b3:e5:f1:5a:40 > 33:33:00:01:00:03, ethertype IPv6 (0x86dd), length 95: (flowlabel 0xcf04a, hlim 1, next-header UDP (17) payload length: 41) fe80::f100:30fd:eccc:c76c.53419 > ff02::1:3.5355: [udp sum ok] UDP, length 33
	0x0000:  600c f04a 0029 1101 fe80 0000 0000 0000  `..J.)..........
	0x0010:  f100 30fd eccc c76c ff02 0000 0000 0000  ..0....l........
	0x0020:  0000 0000 0001 0003 d0ab 14eb 0029 27a1  .............)'.
	0x0030:  2619 0000 0001 0000 0000 0000 0f4a 555a  &............JUZ
	0x0040:  4553 2d5a 454e 424f 4f4b 2d50 0000 1c00  ES-ZENBOOK-P....
	0x0050:  01                                       .
06:18:22.417114 6e:b3:e5:f1:5a:40 > 01:00:5e:00:00:fc, ethertype IPv4 (0x0800), length 75: (tos 0x0, ttl 1, id 45827, offset 0, flags [none], proto UDP (17), length 61)
    100.64.133.7.52649 > 224.0.0.252.5355: [udp sum ok] UDP, length 33
	0x0000:  4500 003d b303 0000 0111 3c69 6440 8507  E..=......<id@..
	0x0010:  e000 00fc cda9 14eb 0029 7f2a f60c 0000  .........).*....
	0x0020:  0001 0000 0000 0000 0f4a 555a 4553 2d5a  .........JUZES-Z
	0x0030:  454e 424f 4f4b 2d50 0000 0100 01         ENBOOK-P.....
06:18:22.417114 6e:b3:e5:f1:5a:40 > 01:00:5e:00:00:fc, ethertype IPv4 (0x0800), length 75: (tos 0x0, ttl 1, id 45828, offset 0, flags [none], proto UDP (17), length 61)
    100.64.133.7.53419 > 224.0.0.252.5355: [udp sum ok] UDP, length 33
	0x0000:  4500 003d b304 0000 0111 3c68 6440 8507  E..=......<hd@..
	0x0010:  e000 00fc d0ab 14eb 0029 311c 2619 0000  .........)1.&...
	0x0020:  0001 0000 0000 0000 0f4a 555a 4553 2d5a  .........JUZES-Z
	0x0030:  454e 424f 4f4b 2d50 0000 1c00 01         ENBOOK-P.....
06:18:22.721648 c0:b6:f9:e5:84:ea > 33:33:00:01:00:03, ethertype IPv6 (0x86dd), length 95: (flowlabel 0xcf642, hlim 1, next-header UDP (17) payload length: 41) fe80::cfff:76ca:e9d5:c54.63455 > ff02::1:3.5355: [udp sum ok] UDP, length 33
	0x0000:  600c f642 0029 1101 fe80 0000 0000 0000  `..B.)..........
	0x0010:  cfff 76ca e9d5 0c54 ff02 0000 0000 0000  ..v....T........
	0x0020:  0000 0000 0001 0003 f7df 14eb 0029 3624  .............)6$
	0x0030:  c133 0000 0001 0000 0000 0000 0f42 5257  .3...........BRW
	0x0040:  4543 3543 3638 4535 3737 3038 0000 0100  EC5C68E57708....
	0x0050:  01                                       .
06:18:22.721648 c0:b6:f9:e5:84:ea > 01:00:5e:00:00:fc, ethertype IPv4 (0x0800), length 75: (tos 0x0, ttl 1, id 21849, offset 0, flags [none], proto UDP (17), length 61)
    100.64.135.199.63455 > 224.0.0.252.5355: [udp sum ok] UDP, length 33
	0x0000:  4500 003d 5559 0000 0111 9753 6440 87c7  E..=UY.....Sd@..
	0x0010:  e000 00fc f7df 14eb 0029 a39b c133 0000  .........)...3..
	0x0020:  0001 0000 0000 0000 0f42 5257 4543 3543  .........BRWEC5C
	0x0030:  3638 4535 3737 3038 0000 0100 01         68E57708.....
06:18:22.824247 6e:b3:e5:f1:5a:40 > 01:00:5e:00:00:fc, ethertype IPv4 (0x0800), length 75: (tos 0x0, ttl 1, id 45829, offset 0, flags [none], proto UDP (17), length 61)
    100.64.133.7.53419 > 224.0.0.252.5355: [udp sum ok] UDP, length 33
	0x0000:  4500 003d b305 0000 0111 3c67 6440 8507  E..=......<gd@..
	0x0010:  e000 00fc d0ab 14eb 0029 311c 2619 0000  .........)1.&...
	0x0020:  0001 0000 0000 0000 0f4a 555a 4553 2d5a  .........JUZES-Z
	0x0030:  454e 424f 4f4b 2d50 0000 1c00 01         ENBOOK-P.....
06:18:22.824247 6e:b3:e5:f1:5a:40 > 01:00:5e:00:00:fc, ethertype IPv4 (0x0800), length 75: (tos 0x0, ttl 1, id 45830, offset 0, flags [none], proto UDP (17), length 61)
    100.64.133.7.52649 > 224.0.0.252.5355: [udp sum ok] UDP, length 33
	0x0000:  4500 003d b306 0000 0111 3c66 6440 8507  E..=......<fd@..
	0x0010:  e000 00fc cda9 14eb 0029 7f2a f60c 0000  .........).*....
	0x0020:  0001 0000 0000 0000 0f4a 555a 4553 2d5a  .........JUZES-Z
	0x0030:  454e 424f 4f4b 2d50 0000 0100 01         ENBOOK-P.....
06:18:22.824447 6e:b3:e5:f1:5a:40 > 33:33:00:01:00:03, ethertype IPv6 (0x86dd), length 95: (flowlabel 0xcf04a, hlim 1, next-header UDP (17) payload length: 41) fe80::f100:30fd:eccc:c76c.53419 > ff02::1:3.5355: [udp sum ok] UDP, length 33
	0x0000:  600c f04a 0029 1101 fe80 0000 0000 0000  `..J.)..........
	0x0010:  f100 30fd eccc c76c ff02 0000 0000 0000  ..0....l........
	0x0020:  0000 0000 0001 0003 d0ab 14eb 0029 27a1  .............)'.
	0x0030:  2619 0000 0001 0000 0000 0000 0f4a 555a  &............JUZ
	0x0040:  4553 2d5a 454e 424f 4f4b 2d50 0000 1c00  ES-ZENBOOK-P....
	0x0050:  01                                       .
06:18:22.824448 6e:b3:e5:f1:5a:40 > 33:33:00:01:00:03, ethertype IPv6 (0x86dd), length 95: (flowlabel 0x8593e, hlim 1, next-header UDP (17) payload length: 41) fe80::f100:30fd:eccc:c76c.52649 > ff02::1:3.5355: [udp sum ok] UDP, length 33
	0x0000:  6008 593e 0029 1101 fe80 0000 0000 0000  `.Y>.)..........
	0x0010:  f100 30fd eccc c76c ff02 0000 0000 0000  ..0....l........
	0x0020:  0000 0000 0001 0003 cda9 14eb 0029 75af  .............)u.
	0x0030:  f60c 0000 0001 0000 0000 0000 0f4a 555a  .............JUZ
	0x0040:  4553 2d5a 454e 424f 4f4b 2d50 0000 0100  ES-ZENBOOK-P....
	0x0050:  01                                       .
06:18:23.442174 6e:b3:e5:f1:5a:40 > 01:00:5e:00:00:fc, ethertype IPv4 (0x0800), length 75: (tos 0x0, ttl 1, id 45831, offset 0, flags [none], proto UDP (17), length 61)
    100.64.133.7.50302 > 224.0.0.252.5355: [udp sum ok] UDP, length 33
	0x0000:  4500 003d b307 0000 0111 3c65 6440 8507  E..=......<ed@..
	0x0010:  e000 00fc c47e 14eb 0029 7c3e 0224 0000  .....~...)|>.$..
	0x0020:  0001 0000 0000 0000 0f4a 555a 4553 2d5a  .........JUZES-Z
	0x0030:  454e 424f 4f4b 2d50 0000 0100 01         ENBOOK-P.....
06:18:23.442174 6e:b3:e5:f1:5a:40 > 01:00:5e:00:00:fc, ethertype IPv4 (0x0800), length 75: (tos 0x0, ttl 1, id 45832, offset 0, flags [none], proto UDP (17), length 61)
    100.64.133.7.52355 > 224.0.0.252.5355: [udp sum ok] UDP, length 33
	0x0000:  4500 003d b308 0000 0111 3c64 6440 8507  E..=......<dd@..
	0x0010:  e000 00fc cc83 14eb 0029 adcb ad91 0000  .........)......
	0x0020:  0001 0000 0000 0000 0f4a 555a 4553 2d5a  .........JUZES-Z
	0x0030:  454e 424f 4f4b 2d50 0000 1c00 01         ENBOOK-P.....
06:18:23.442354 6e:b3:e5:f1:5a:40 > 33:33:00:01:00:03, ethertype IPv6 (0x86dd), length 95: (flowlabel 0x427b0, hlim 1, next-header UDP (17) payload length: 41) fe80::f100:30fd:eccc:c76c.50302 > ff02::1:3.5355: [udp sum ok] UDP, length 33
	0x0000:  6004 27b0 0029 1101 fe80 0000 0000 0000  `.'..)..........
	0x0010:  f100 30fd eccc c76c ff02 0000 0000 0000  ..0....l........
	0x0020:  0000 0000 0001 0003 c47e 14eb 0029 72c3  .........~...)r.
	0x0030:  0224 0000 0001 0000 0000 0000 0f4a 555a  .$...........JUZ
	0x0040:  4553 2d5a 454e 424f 4f4b 2d50 0000 0100  ES-ZENBOOK-P....
	0x0050:  01                                       .
06:18:23.442474 6e:b3:e5:f1:5a:40 > 33:33:00:01:00:03, ethertype IPv6 (0x86dd), length 95: (flowlabel 0x1c4ec, hlim 1, next-header UDP (17) payload length: 41) fe80::f100:30fd:eccc:c76c.52355 > ff02::1:3.5355: [udp sum ok] UDP, length 33
	0x0000:  6001 c4ec 0029 1101 fe80 0000 0000 0000  `....)..........
	0x0010:  f100 30fd eccc c76c ff02 0000 0000 0000  ..0....l........
	0x0020:  0000 0000 0001 0003 cc83 14eb 0029 a450  .............).P
	0x0030:  ad91 0000 0001 0000 0000 0000 0f4a 555a  .............JUZ
	0x0040:  4553 2d5a 454e 424f 4f4b 2d50 0000 1c00  ES-ZENBOOK-P....
	0x0050:  01                                       .
06:18:23.840535 6e:b3:e5:f1:5a:40 > 33:33:00:01:00:03, ethertype IPv6 (0x86dd), length 95: (flowlabel 0x427b0, hlim 1, next-header UDP (17) payload length: 41) fe80::f100:30fd:eccc:c76c.50302 > ff02::1:3.5355: [udp sum ok] UDP, length 33
	0x0000:  6004 27b0 0029 1101 fe80 0000 0000 0000  `.'..)..........
	0x0010:  f100 30fd eccc c76c ff02 0000 0000 0000  ..0....l........
	0x0020:  0000 0000 0001 0003 c47e 14eb 0029 72c3  .........~...)r.
	0x0030:  0224 0000 0001 0000 0000 0000 0f4a 555a  .$...........JUZ
	0x0040:  4553 2d5a 454e 424f 4f4b 2d50 0000 0100  ES-ZENBOOK-P....
	0x0050:  01                                       .
06:18:23.843204 6e:b3:e5:f1:5a:40 > 33:33:00:01:00:03, ethertype IPv6 (0x86dd), length 95: (flowlabel 0x1c4ec, hlim 1, next-header UDP (17) payload length: 41) fe80::f100:30fd:eccc:c76c.52355 > ff02::1:3.5355: [udp sum ok] UDP, length 33
	0x0000:  6001 c4ec 0029 1101 fe80 0000 0000 0000  `....)..........
	0x0010:  f100 30fd eccc c76c ff02 0000 0000 0000  ..0....l........
	0x0020:  0000 0000 0001 0003 cc83 14eb 0029 a450  .............).P
	0x0030:  ad91 0000 0001 0000 0000 0000 0f4a 555a  .............JUZ
	0x0040:  4553 2d5a 454e 424f 4f4b 2d50 0000 1c00  ES-ZENBOOK-P....
	0x0050:  01                                       .
06:18:23.843204 6e:b3:e5:f1:5a:40 > 01:00:5e:00:00:fc, ethertype IPv4 (0x0800), length 75: (tos 0x0, ttl 1, id 45833, offset 0, flags [none], proto UDP (17), length 61)
    100.64.133.7.52355 > 224.0.0.252.5355: [udp sum ok] UDP, length 33
	0x0000:  4500 003d b309 0000 0111 3c63 6440 8507  E..=......<cd@..
	0x0010:  e000 00fc cc83 14eb 0029 adcb ad91 0000  .........)......
	0x0020:  0001 0000 0000 0000 0f4a 555a 4553 2d5a  .........JUZES-Z
	0x0030:  454e 424f 4f4b 2d50 0000 1c00 01         ENBOOK-P.....
06:18:23.843204 6e:b3:e5:f1:5a:40 > 01:00:5e:00:00:fc, ethertype IPv4 (0x0800), length 75: (tos 0x0, ttl 1, id 45834, offset 0, flags [none], proto UDP (17), length 61)
    100.64.133.7.50302 > 224.0.0.252.5355: [udp sum ok] UDP, length 33
	0x0000:  4500 003d b30a 0000 0111 3c62 6440 8507  E..=......<bd@..
	0x0010:  e000 00fc c47e 14eb 0029 7c3e 0224 0000  .....~...)|>.$..
	0x0020:  0001 0000 0000 0000 0f4a 555a 4553 2d5a  .........JUZES-Z
	0x0030:  454e 424f 4f4b 2d50 0000 0100 01         ENBOOK-P.....
06:18:25.074969 c0:b6:f9:e5:84:ea > 01:00:5e:00:00:fc, ethertype IPv4 (0x0800), length 75: (tos 0x0, ttl 1, id 21850, offset 0, flags [none], proto UDP (17), length 61)
    100.64.135.199.53715 > 224.0.0.252.5355: [udp sum ok] UDP, length 33
	0x0000:  4500 003d 555a 0000 0111 9752 6440 87c7  E..=UZ.....Rd@..
	0x0010:  e000 00fc d1d3 14eb 0029 f2d7 9803 0000  .........)......
	0x0020:  0001 0000 0000 0000 0f42 5257 4543 3543  .........BRWEC5C
	0x0030:  3638 4535 3737 3038 0000 0100 01         68E57708.....
06:18:25.075037 c0:b6:f9:e5:84:ea > 33:33:00:01:00:03, ethertype IPv6 (0x86dd), length 95: (flowlabel 0xb6d22, hlim 1, next-header UDP (17) payload length: 41) fe80::cfff:76ca:e9d5:c54.53715 > ff02::1:3.5355: [udp sum ok] UDP, length 33
	0x0000:  600b 6d22 0029 1101 fe80 0000 0000 0000  `.m".)..........
	0x0010:  cfff 76ca e9d5 0c54 ff02 0000 0000 0000  ..v....T........
	0x0020:  0000 0000 0001 0003 d1d3 14eb 0029 8560  .............).`
	0x0030:  9803 0000 0001 0000 0000 0000 0f42 5257  .............BRW
	0x0040:  4543 3543 3638 4535 3737 3038 0000 0100  EC5C68E57708....
	0x0050:  01                                       .
06:18:25.483956 c0:b6:f9:e5:84:ea > 33:33:00:01:00:03, ethertype IPv6 (0x86dd), length 95: (flowlabel 0xb6d22, hlim 1, next-header UDP (17) payload length: 41) fe80::cfff:76ca:e9d5:c54.53715 > ff02::1:3.5355: [udp sum ok] UDP, length 33
	0x0000:  600b 6d22 0029 1101 fe80 0000 0000 0000  `.m".)..........
	0x0010:  cfff 76ca e9d5 0c54 ff02 0000 0000 0000  ..v....T........
	0x0020:  0000 0000 0001 0003 d1d3 14eb 0029 8560  .............).`
	0x0030:  9803 0000 0001 0000 0000 0000 0f42 5257  .............BRW
	0x0040:  4543 3543 3638 4535 3737 3038 0000 0100  EC5C68E57708....
	0x0050:  01                                       .
06:18:25.484014 c0:b6:f9:e5:84:ea > 01:00:5e:00:00:fc, ethertype IPv4 (0x0800), length 75: (tos 0x0, ttl 1, id 21851, offset 0, flags [none], proto UDP (17), length 61)
    100.64.135.199.53715 > 224.0.0.252.5355: [udp sum ok] UDP, length 33
	0x0000:  4500 003d 555b 0000 0111 9751 6440 87c7  E..=U[.....Qd@..
	0x0010:  e000 00fc d1d3 14eb 0029 f2d7 9803 0000  .........)......
	0x0020:  0001 0000 0000 0000 0f42 5257 4543 3543  .........BRWEC5C
	0x0030:  3638 4535 3737 3038 0000 0100 01         68E57708.....
06:18:26.508154 b0:3c:dc:26:57:19 > 01:00:5e:00:00:fc, ethertype IPv4 (0x0800), length 65: (tos 0x0, ttl 1, id 25663, offset 0, flags [none], proto UDP (17), length 51)
    100.64.129.83.61246 > 224.0.0.252.5355: [udp sum ok] UDP, length 23
	0x0000:  4500 0033 643f 0000 0111 8eeb 6440 8153  E..3d?......d@.S
	0x0010:  e000 00fc ef3e 14eb 001f 3937 2b6d 0000  .....>....97+m..
	0x0020:  0001 0000 0000 0000 0573 696d 616f 0000  .........simao..
	0x0030:  ff00 01                                  ...
06:18:26.508310 b0:3c:dc:26:57:19 > 33:33:00:01:00:03, ethertype IPv6 (0x86dd), length 85: (flowlabel 0x1146f, hlim 1, next-header UDP (17) payload length: 31) fe80::2be9:61c:5f65:f96b.61246 > ff02::1:3.5355: [udp sum ok] UDP, length 23
	0x0000:  6001 146f 001f 1101 fe80 0000 0000 0000  `..o............
	0x0010:  2be9 061c 5f65 f96b ff02 0000 0000 0000  +..._e.k........
	0x0020:  0000 0000 0001 0003 ef3e 14eb 001f 7769  .........>....wi
	0x0030:  2b6d 0000 0001 0000 0000 0000 0573 696d  +m...........sim
	0x0040:  616f 0000 ff00 01                        ao.....
06:18:27.938401 c0:b6:f9:e5:84:ea > 33:33:00:01:00:03, ethertype IPv6 (0x86dd), length 95: (flowlabel 0xc93a8, hlim 1, next-header UDP (17) payload length: 41) fe80::cfff:76ca:e9d5:c54.60772 > ff02::1:3.5355: [udp sum ok] UDP, length 33
	0x0000:  600c 93a8 0029 1101 fe80 0000 0000 0000  `....)..........
	0x0010:  cfff 76ca e9d5 0c54 ff02 0000 0000 0000  ..v....T........
	0x0020:  0000 0000 0001 0003 ed64 14eb 0029 3ddf  .........d...)=.
	0x0030:  c3f3 0000 0001 0000 0000 0000 0f42 5257  .............BRW
	0x0040:  4543 3543 3638 4535 3737 3038 0000 0100  EC5C68E57708....
	0x0050:  01                                       .
06:18:27.938401 c0:b6:f9:e5:84:ea > 01:00:5e:00:00:fc, ethertype IPv4 (0x0800), length 75: (tos 0x0, ttl 1, id 21852, offset 0, flags [none], proto UDP (17), length 61)
    100.64.135.199.60772 > 224.0.0.252.5355: [udp sum ok] UDP, length 33
	0x0000:  4500 003d 555c 0000 0111 9750 6440 87c7  E..=U\.....Pd@..
	0x0010:  e000 00fc ed64 14eb 0029 ab56 c3f3 0000  .....d...).V....
	0x0020:  0001 0000 0000 0000 0f42 5257 4543 3543  .........BRWEC5C
	0x0030:  3638 4535 3737 3038 0000 0100 01         68E57708.....
06:18:28.349913 c0:b6:f9:e5:84:ea > 33:33:00:01:00:03, ethertype IPv6 (0x86dd), length 95: (flowlabel 0xc93a8, hlim 1, next-header UDP (17) payload length: 41) fe80::cfff:76ca:e9d5:c54.60772 > ff02::1:3.5355: [udp sum ok] UDP, length 33
	0x0000:  600c 93a8 0029 1101 fe80 0000 0000 0000  `....)..........
	0x0010:  cfff 76ca e9d5 0c54 ff02 0000 0000 0000  ..v....T........
	0x0020:  0000 0000 0001 0003 ed64 14eb 0029 3ddf  .........d...)=.
	0x0030:  c3f3 0000 0001 0000 0000 0000 0f42 5257  .............BRW
	0x0040:  4543 3543 3638 4535 3737 3038 0000 0100  EC5C68E57708....
	0x0050:  01                                       .
06:18:28.349913 c0:b6:f9:e5:84:ea > 01:00:5e:00:00:fc, ethertype IPv4 (0x0800), length 75: (tos 0x0, ttl 1, id 21853, offset 0, flags [none], proto UDP (17), length 61)
    100.64.135.199.60772 > 224.0.0.252.5355: [udp sum ok] UDP, length 33
	0x0000:  4500 003d 555d 0000 0111 974f 6440 87c7  E..=U].....Od@..
	0x0010:  e000 00fc ed64 14eb 0029 ab56 c3f3 0000  .....d...).V....
	0x0020:  0001 0000 0000 0000 0f42 5257 4543 3543  .........BRWEC5C
	0x0030:  3638 4535 3737 3038 0000 0100 01         68E57708.....
06:18:30.704441 c0:b6:f9:e5:84:ea > 33:33:00:01:00:03, ethertype IPv6 (0x86dd), length 95: (flowlabel 0x6ecb6, hlim 1, next-header UDP (17) payload length: 41) fe80::cfff:76ca:e9d5:c54.54461 > ff02::1:3.5355: [udp sum ok] UDP, length 33
	0x0000:  6006 ecb6 0029 1101 fe80 0000 0000 0000  `....)..........
	0x0010:  cfff 76ca e9d5 0c54 ff02 0000 0000 0000  ..v....T........
	0x0020:  0000 0000 0001 0003 d4bd 14eb 0029 abed  .............)..
	0x0030:  6e8c 0000 0001 0000 0000 0000 0f42 5257  n............BRW
	0x0040:  4543 3543 3638 4535 3737 3038 0000 0100  EC5C68E57708....
	0x0050:  01                                       .
06:18:30.704441 c0:b6:f9:e5:84:ea > 01:00:5e:00:00:fc, ethertype IPv4 (0x0800), length 75: (tos 0x0, ttl 1, id 21854, offset 0, flags [none], proto UDP (17), length 61)
    100.64.135.199.54461 > 224.0.0.252.5355: [udp sum ok] UDP, length 33
	0x0000:  4500 003d 555e 0000 0111 974e 6440 87c7  E..=U^.....Nd@..
	0x0010:  e000 00fc d4bd 14eb 0029 1965 6e8c 0000  .........).en...
	0x0020:  0001 0000 0000 0000 0f42 5257 4543 3543  .........BRWEC5C
	0x0030:  3638 4535 3737 3038 0000 0100 01         68E57708.....
06:18:31.115271 c0:b6:f9:e5:84:ea > 33:33:00:01:00:03, ethertype IPv6 (0x86dd), length 95: (flowlabel 0x6ecb6, hlim 1, next-header UDP (17) payload length: 41) fe80::cfff:76ca:e9d5:c54.54461 > ff02::1:3.5355: [udp sum ok] UDP, length 33
	0x0000:  6006 ecb6 0029 1101 fe80 0000 0000 0000  `....)..........
	0x0010:  cfff 76ca e9d5 0c54 ff02 0000 0000 0000  ..v....T........
	0x0020:  0000 0000 0001 0003 d4bd 14eb 0029 abed  .............)..
	0x0030:  6e8c 0000 0001 0000 0000 0000 0f42 5257  n............BRW
	0x0040:  4543 3543 3638 4535 3737 3038 0000 0100  EC5C68E57708....
	0x0050:  01                                       .
06:18:31.115280 c0:b6:f9:e5:84:ea > 01:00:5e:00:00:fc, ethertype IPv4 (0x0800), length 75: (tos 0x0, ttl 1, id 21855, offset 0, flags [none], proto UDP (17), length 61)
    100.64.135.199.54461 > 224.0.0.252.5355: [udp sum ok] UDP, length 33
	0x0000:  4500 003d 555f 0000 0111 974d 6440 87c7  E..=U_.....Md@..
	0x0010:  e000 00fc d4bd 14eb 0029 1965 6e8c 0000  .........).en...
	0x0020:  0001 0000 0000 0000 0f42 5257 4543 3543  .........BRWEC5C
	0x0030:  3638 4535 3737 3038 0000 0100 01         68E57708.....
